{
  "contractName": "BitbetBet",
  "abi": [
    {
      "constant": true,
      "inputs": [
        {
          "name": "",
          "type": "uint256"
        }
      ],
      "name": "participantAccts",
      "outputs": [
        {
          "name": "",
          "type": "address"
        }
      ],
      "payable": false,
      "stateMutability": "view",
      "type": "function"
    },
    {
      "inputs": [
        {
          "name": "_teamOne",
          "type": "string"
        },
        {
          "name": "_teamTwo",
          "type": "string"
        },
        {
          "name": "_teamOneRate",
          "type": "uint32"
        },
        {
          "name": "_teamTwoRate",
          "type": "uint32"
        }
      ],
      "payable": true,
      "stateMutability": "payable",
      "type": "constructor"
    },
    {
      "constant": false,
      "inputs": [
        {
          "name": "_team",
          "type": "string"
        }
      ],
      "name": "setBet",
      "outputs": [],
      "payable": true,
      "stateMutability": "payable",
      "type": "function"
    },
    {
      "constant": true,
      "inputs": [],
      "name": "getParticipants",
      "outputs": [
        {
          "name": "",
          "type": "address[]"
        }
      ],
      "payable": false,
      "stateMutability": "view",
      "type": "function"
    },
    {
      "constant": true,
      "inputs": [
        {
          "name": "_address",
          "type": "address"
        }
      ],
      "name": "getParticipant",
      "outputs": [
        {
          "name": "",
          "type": "string"
        },
        {
          "name": "",
          "type": "uint256"
        }
      ],
      "payable": false,
      "stateMutability": "view",
      "type": "function"
    },
    {
      "constant": false,
      "inputs": [],
      "name": "retrieveGain",
      "outputs": [],
      "payable": true,
      "stateMutability": "payable",
      "type": "function"
    }
  ],
  "bytecode": "0x608060405260405162001285380380620012858339810180604052810190808051820192919060200180518201929190602001805190602001909291908051906020019092919050505033600260086101000a81548173ffffffffffffffffffffffffffffffffffffffff021916908373ffffffffffffffffffffffffffffffffffffffff1602179055508360009080519060200190620000a292919062000108565b508260019080519060200190620000bb92919062000108565b5081600260006101000a81548163ffffffff021916908363ffffffff16021790555080600260046101000a81548163ffffffff021916908363ffffffff16021790555050505050620001b7565b828054600181600116156101000203166002900490600052602060002090601f016020900481019282601f106200014b57805160ff19168380011785556200017c565b828001600101855582156200017c579182015b828111156200017b5782518255916020019190600101906200015e565b5b5090506200018b91906200018f565b5090565b620001b491905b80821115620001b057600081600090555060010162000196565b5090565b90565b6110be80620001c76000396000f30060806040526004361061006d576000357c0100000000000000000000000000000000000000000000000000000000900463ffffffff1680630ce7d168146100725780631b57f55a1461007c5780632963f67f146100d85780635aa68ac0146101455780637143059f146101b1575b600080fd5b61007a610274565b005b6100d6600480360381019080803590602001908201803590602001908080601f016020809104026020016040519081016040528093929190818152602001838380828437820191505050505050919291929050505061099c565b005b3480156100e457600080fd5b5061010360048036038101908080359060200190929190505050610df3565b604051808273ffffffffffffffffffffffffffffffffffffffff1673ffffffffffffffffffffffffffffffffffffffff16815260200191505060405180910390f35b34801561015157600080fd5b5061015a610e31565b6040518080602001828103825283818151815260200191508051906020019060200280838360005b8381101561019d578082015181840152602081019050610182565b505050509050019250505060405180910390f35b3480156101bd57600080fd5b506101f2600480360381019080803573ffffffffffffffffffffffffffffffffffffffff169060200190929190505050610ebf565b6040518080602001838152602001828103825284818151815260200191508051906020019080838360005b8381101561023857808201518184015260208101905061021d565b50505050905090810190601f1680156102655780820380516001836020036101000a031916815260200191505b50935050505060405180910390f35b60606000606060008061028633610ebf565b94509450600560009054906101000a900473ffffffffffffffffffffffffffffffffffffffff1673ffffffffffffffffffffffffffffffffffffffff1663f7566b49306040518263ffffffff167c0100000000000000000000000000000000000000000000000000000000028152600401808273ffffffffffffffffffffffffffffffffffffffff1673ffffffffffffffffffffffffffffffffffffffff168152602001915050600060405180830381600087803b15801561034757600080fd5b505af115801561035b573d6000803e3d6000fd5b505050506040513d6000823e3d601f19601f82011682018060405250604081101561038557600080fd5b81019080805164010000000081111561039d57600080fd5b828101905060208101848111156103b357600080fd5b81518560018202830111640100000000821117156103d057600080fd5b505092919060200180519060200190929190505050925092508115156103f557600080fd5b826040516020018082805190602001908083835b60208310151561042e5780518252602082019150602081019050602083039250610409565b6001836020036101000a0380198251168184511680821785525050505050509050019150506040516020818303038152906040526040518082805190602001908083835b6020831015156104975780518252602082019150602081019050602083039250610472565b6001836020036101000a038019825116818451168082178552505050505050905001915050604051809103902060001916856040516020018082805190602001908083835b60208310151561050157805182526020820191506020810190506020830392506104dc565b6001836020036101000a0380198251168184511680821785525050505050509050019150506040516020818303038152906040526040518082805190602001908083835b60208310151561056a5780518252602082019150602081019050602083039250610545565b6001836020036101000a0380198251168184511680821785525050505050509050019150506040518091039020600019161415156105a757600080fd5b826040516020018082805190602001908083835b6020831015156105e057805182526020820191506020810190506020830392506105bb565b6001836020036101000a0380198251168184511680821785525050505050509050019150506040516020818303038152906040526040518082805190602001908083835b6020831015156106495780518252602082019150602081019050602083039250610624565b6001836020036101000a038019825116818451168082178552505050505050905001915050604051809103902060001916600060405160200180828054600181600116156101000203166002900480156106da5780601f106106b85761010080835404028352918201916106da565b820191906000526020600020905b8154815290600101906020018083116106c6575b50509150506040516020818303038152906040526040518082805190602001908083835b60208310151561072357805182526020820191506020810190506020830392506106fe565b6001836020036101000a038019825116818451168082178552505050505050905001915050604051809103902060001916141561077c57600260009054906101000a900463ffffffff1663ffffffff168402905061094e565b826040516020018082805190602001908083835b6020831015156107b55780518252602082019150602081019050602083039250610790565b6001836020036101000a0380198251168184511680821785525050505050509050019150506040516020818303038152906040526040518082805190602001908083835b60208310151561081e57805182526020820191506020810190506020830392506107f9565b6001836020036101000a038019825116818451168082178552505050505050905001915050604051809103902060001916600160405160200180828054600181600116156101000203166002900480156108af5780601f1061088d5761010080835404028352918201916108af565b820191906000526020600020905b81548152906001019060200180831161089b575b50509150506040516020818303038152906040526040518082805190602001908083835b6020831015156108f857805182526020820191506020810190506020830392506108d3565b6001836020036101000a038019825116818451168082178552505050505050905001915050604051809103902060001916141561094d57600260049054906101000a900463ffffffff1663ffffffff16840290505b5b3373ffffffffffffffffffffffffffffffffffffffff166108fc829081150290604051600060405180830381858888f19350505050158015610994573d6000803e3d6000fd5b505050505050565b6000670de0b6b3a764000034101515156109b557600080fd5b816040516020018082805190602001908083835b6020831015156109ee57805182526020820191506020810190506020830392506109c9565b6001836020036101000a0380198251168184511680821785525050505050509050019150506040516020818303038152906040526040518082805190602001908083835b602083101515610a575780518252602082019150602081019050602083039250610a32565b6001836020036101000a03801982511681845116808217855250505050505090500191505060405180910390206000191660006040516020018082805460018160011615610100020316600290048015610ae85780601f10610ac6576101008083540402835291820191610ae8565b820191906000526020600020905b815481529060010190602001808311610ad4575b50509150506040516020818303038152906040526040518082805190602001908083835b602083101515610b315780518252602082019150602081019050602083039250610b0c565b6001836020036101000a0380198251168184511680821785525050505050509050019150506040518091039020600019161480610d185750816040516020018082805190602001908083835b602083101515610ba25780518252602082019150602081019050602083039250610b7d565b6001836020036101000a0380198251168184511680821785525050505050509050019150506040516020818303038152906040526040518082805190602001908083835b602083101515610c0b5780518252602082019150602081019050602083039250610be6565b6001836020036101000a03801982511681845116808217855250505050505090500191505060405180910390206000191660016040516020018082805460018160011615610100020316600290048015610c9c5780601f10610c7a576101008083540402835291820191610c9c565b820191906000526020600020905b815481529060010190602001808311610c88575b50509150506040516020818303038152906040526040518082805190602001908083835b602083101515610ce55780518252602082019150602081019050602083039250610cc0565b6001836020036101000a038019825116818451168082178552505050505050905001915050604051809103902060001916145b1515610d2357600080fd5b600360003373ffffffffffffffffffffffffffffffffffffffff1673ffffffffffffffffffffffffffffffffffffffff168152602001908152602001600020905081816000019080519060200190610d7c929190610fed565b50348160010181905550600160043390806001815401808255809150509060018203906000526020600020016000909192909190916101000a81548173ffffffffffffffffffffffffffffffffffffffff021916908373ffffffffffffffffffffffffffffffffffffffff16021790555050505050565b600481815481101515610e0257fe5b906000526020600020016000915054906101000a900473ffffffffffffffffffffffffffffffffffffffff1681565b60606004805480602002602001604051908101604052809291908181526020018280548015610eb557602002820191906000526020600020905b8160009054906101000a900473ffffffffffffffffffffffffffffffffffffffff1673ffffffffffffffffffffffffffffffffffffffff1681526020019060010190808311610e6b575b5050505050905090565b60606000600360008473ffffffffffffffffffffffffffffffffffffffff1673ffffffffffffffffffffffffffffffffffffffff168152602001908152602001600020600001600360008573ffffffffffffffffffffffffffffffffffffffff1673ffffffffffffffffffffffffffffffffffffffff16815260200190815260200160002060010154818054600181600116156101000203166002900480601f016020809104026020016040519081016040528092919081815260200182805460018160011615610100020316600290048015610fdd5780601f10610fb257610100808354040283529160200191610fdd565b820191906000526020600020905b815481529060010190602001808311610fc057829003601f168201915b5050505050915091509150915091565b828054600181600116156101000203166002900490600052602060002090601f016020900481019282601f1061102e57805160ff191683800117855561105c565b8280016001018555821561105c579182015b8281111561105b578251825591602001919060010190611040565b5b509050611069919061106d565b5090565b61108f91905b8082111561108b576000816000905550600101611073565b5090565b905600a165627a7a723058203b9fb9a59e1216deb51215d76ac80aff3067667bf1b309c5384ce351e4c07cc20029",
  "source": "pragma solidity ^0.4.23;\r\n\r\n\r\nimport './BitBetOracleInterface.sol';\r\n\r\ncontract BitbetBet {\r\n\r\n    string teamOne;\r\n    string teamTwo;\r\n    uint32 teamOneRate;\r\n    uint32 teamTwoRate;\r\n    address private administrator;\r\n    mapping (address => Bet) participants;\r\n    address[] public participantAccts;\r\n\r\n    BitBetOracleInterface bitBetOracle;\r\n\r\n    constructor(string _teamOne, string _teamTwo, uint32 _teamOneRate, uint32 _teamTwoRate) public payable {\r\n        administrator = msg.sender;\r\n        teamOne = _teamOne;\r\n        teamTwo = _teamTwo;\r\n\r\n        teamOneRate = _teamOneRate;\r\n        teamTwoRate = _teamTwoRate;\r\n    }\r\n\r\n    struct Bet {\r\n        string team;\r\n        uint256 amount;\r\n    }\r\n\r\n    function setBet(string _team) public payable {\r\n        require(msg.value >= 1 ether);\r\n        require(keccak256(abi.encodePacked(teamOne)) == keccak256(abi.encodePacked(_team)) || keccak256(abi.encodePacked(teamTwo)) == keccak256(abi.encodePacked(_team)));\r\n        var participant = participants[msg.sender];\r\n\r\n        participant.team = _team;\r\n        participant.amount = msg.value;\r\n\r\n        participantAccts.push(msg.sender) -1;\r\n    }\r\n\r\n\r\n    function getParticipants() view public returns (address[]) {\r\n        return participantAccts;\r\n    }\r\n\r\n    function getParticipant(address _address) view public returns (string, uint256) {\r\n        return (participants[_address].team, participants[_address].amount);\r\n    }\r\n\r\n    /* Le client demande ses gains */\r\n    function retrieveGain() payable public {\r\n        var (team, amount) = getParticipant(msg.sender);\r\n        var (winner, finish) = bitBetOracle.getBet(address(this));\r\n\r\n        // le match doit être terminé\r\n        require(finish);\r\n        // l'utilisateur doit avoir voté pour l'équipe gagnante\r\n        require(keccak256(abi.encodePacked(team)) == keccak256(abi.encodePacked(winner)));\r\n\r\n        uint256 amtToGive;\r\n        if (keccak256(abi.encodePacked(teamOne)) == keccak256(abi.encodePacked(winner))) {\r\n            amtToGive = amount * teamOneRate;\r\n        }\r\n        else if (keccak256(abi.encodePacked(teamTwo)) == keccak256(abi.encodePacked(winner))) {\r\n            amtToGive = amount * teamTwoRate;\r\n        }\r\n\r\n        msg.sender.transfer(amtToGive);\r\n    }\r\n\r\n}\r\n",
  "sourcePath": "C:\\Users\\Pol\\Documents\\Cours 4ème année\\Blockchain\\Projet\\BitBet\\BACK\\contracts\\BitbetBet.sol",
  "compiler": {
    "name": "solc",
    "version": "0.4.23+commit.124ca40d.Emscripten.clang"
  },
  "schemaVersion": "2.0.0",
  "updatedAt": "2018-06-07T09:55:12.077Z"
}