{
  "contractName": "BitbetOracle",
  "abi": [
    {
      "constant": true,
      "inputs": [
        {
          "name": "",
          "type": "uint256"
        }
      ],
      "name": "betsList",
      "outputs": [
        {
          "name": "",
          "type": "address"
        }
      ],
      "payable": false,
      "stateMutability": "view",
      "type": "function"
    },
    {
      "inputs": [],
      "payable": false,
      "stateMutability": "nonpayable",
      "type": "constructor"
    },
    {
      "constant": false,
      "inputs": [],
      "name": "createBet",
      "outputs": [],
      "payable": false,
      "stateMutability": "nonpayable",
      "type": "function"
    },
    {
      "constant": false,
      "inputs": [
        {
          "name": "_bitBetContract",
          "type": "address"
        },
        {
          "name": "_winner",
          "type": "string"
        },
        {
          "name": "_finish",
          "type": "bool"
        }
      ],
      "name": "setResult",
      "outputs": [],
      "payable": false,
      "stateMutability": "nonpayable",
      "type": "function"
    },
    {
      "constant": false,
      "inputs": [
        {
          "name": "_address",
          "type": "address"
        },
        {
          "name": "_teamOne",
          "type": "string"
        },
        {
          "name": "_teamTwo",
          "type": "string"
        },
        {
          "name": "_winner",
          "type": "string"
        },
        {
          "name": "_finish",
          "type": "bool"
        }
      ],
      "name": "setBetTable",
      "outputs": [],
      "payable": false,
      "stateMutability": "nonpayable",
      "type": "function"
    },
    {
      "constant": true,
      "inputs": [],
      "name": "getBetsList",
      "outputs": [
        {
          "name": "",
          "type": "address[]"
        }
      ],
      "payable": false,
      "stateMutability": "view",
      "type": "function"
    },
    {
      "constant": true,
      "inputs": [
        {
          "name": "_address",
          "type": "address"
        }
      ],
      "name": "getBet",
      "outputs": [
        {
          "name": "",
          "type": "string"
        },
        {
          "name": "",
          "type": "string"
        },
        {
          "name": "",
          "type": "string"
        },
        {
          "name": "",
          "type": "bool"
        }
      ],
      "payable": false,
      "stateMutability": "view",
      "type": "function"
    }
  ],
  "bytecode": "0x608060405234801561001057600080fd5b50336000806101000a81548173ffffffffffffffffffffffffffffffffffffffff021916908373ffffffffffffffffffffffffffffffffffffffff160217905550612200806100606000396000f300608060405260043610610078576000357c0100000000000000000000000000000000000000000000000000000000900463ffffffff168063295010221461007d5780636a179d42146101125780636e3979201461017e5780637b2d4e361461029f578063dec9ba441461030c578063f7566b4914610323575b600080fd5b34801561008957600080fd5b50610110600480360381019080803573ffffffffffffffffffffffffffffffffffffffff169060200190929190803590602001908201803590602001908080601f01602080910402602001604051908101604052809392919081815260200183838082843782019150505050505091929192908035151590602001909291905050506104c2565b005b34801561011e57600080fd5b5061012761054f565b6040518080602001828103825283818151815260200191508051906020019060200280838360005b8381101561016a57808201518184015260208101905061014f565b505050509050019250505060405180910390f35b34801561018a57600080fd5b5061029d600480360381019080803573ffffffffffffffffffffffffffffffffffffffff169060200190929190803590602001908201803590602001908080601f0160208091040260200160405190810160405280939291908181526020018383808284378201915050505050509192919290803590602001908201803590602001908080601f0160208091040260200160405190810160405280939291908181526020018383808284378201915050505050509192919290803590602001908201803590602001908080601f01602080910402602001604051908101604052809392919081815260200183838082843782019150505050505091929192908035151590602001909291905050506105dd565b005b3480156102ab57600080fd5b506102ca600480360381019080803590602001909291905050506108c8565b604051808273ffffffffffffffffffffffffffffffffffffffff1673ffffffffffffffffffffffffffffffffffffffff16815260200191505060405180910390f35b34801561031857600080fd5b50610321610906565b005b34801561032f57600080fd5b50610364600480360381019080803573ffffffffffffffffffffffffffffffffffffffff169060200190929190505050610a4d565b6040518080602001806020018060200185151515158152602001848103845288818151815260200191508051906020019080838360005b838110156103b657808201518184015260208101905061039b565b50505050905090810190601f1680156103e35780820380516001836020036101000a031916815260200191505b50848103835287818151815260200191508051906020019080838360005b8381101561041c578082015181840152602081019050610401565b50505050905090810190601f1680156104495780820380516001836020036101000a031916815260200191505b50848103825286818151815260200191508051906020019080838360005b83811015610482578082015181840152602081019050610467565b50505050905090810190601f1680156104af5780820380516001836020036101000a031916815260200191505b5097505050505050505060405180910390f35b6000809054906101000a900473ffffffffffffffffffffffffffffffffffffffff1673ffffffffffffffffffffffffffffffffffffffff163373ffffffffffffffffffffffffffffffffffffffff1614151561051d57600080fd5b61054a836020604051908101604052806000815250602060405190810160405280600081525085856105dd565b505050565b606060028054806020026020016040519081016040528092919081815260200182805480156105d357602002820191906000526020600020905b8160009054906101000a900473ffffffffffffffffffffffffffffffffffffffff1673ffffffffffffffffffffffffffffffffffffffff1681526020019060010190808311610589575b5050505050905090565b6000606080600160008973ffffffffffffffffffffffffffffffffffffffff1673ffffffffffffffffffffffffffffffffffffffff1681526020019081526020016000209250869150859050600082511415801561063d57506000815114155b15610675578683600001908051906020019061065a929190610d4d565b5085836001019080519060200190610673929190610d4d565b505b866040518082805190602001908083835b6020831015156106ab5780518252602082019150602081019050602083039250610686565b6001836020036101000a038019825116818451168082178552505050505050905001915050604051809103902060001916856040518082805190602001908083835b60208310151561071257805182526020820191506020810190506020830392506106ed565b6001836020036101000a038019825116818451168082178552505050505050905001915050604051809103902060001916148061081a5750856040518082805190602001908083835b602083101515610780578051825260208201915060208101905060208303925061075b565b6001836020036101000a038019825116818451168082178552505050505050905001915050604051809103902060001916856040518082805190602001908083835b6020831015156107e757805182526020820191506020810190506020830392506107c2565b6001836020036101000a038019825116818451168082178552505050505050905001915050604051809103902060001916145b156108395784836002019080519060200190610837929190610d4d565b505b838360030160006101000a81548160ff021916908315150217905550600160028990806001815401808255809150509060018203906000526020600020016000909192909190916101000a81548173ffffffffffffffffffffffffffffffffffffffff021916908373ffffffffffffffffffffffffffffffffffffffff16021790555050505050505050505050565b6002818154811015156108d757fe5b906000526020600020016000915054906101000a900473ffffffffffffffffffffffffffffffffffffffff1681565b6000600a600c610914610dcd565b8080602001806020018563ffffffff1681526020018463ffffffff168152602001838103835260078152602001807f7465616d4f6e6500000000000000000000000000000000000000000000000000815250602001838103825260078152602001807f7465616d54776f00000000000000000000000000000000000000000000000000815250602001945050505050604051809103906000f0801580156109bf573d6000803e3d6000fd5b509050610a4a816040805190810160405280600781526020017f7465616d4f6e65000000000000000000000000000000000000000000000000008152506040805190810160405280600781526020017f7465616d54776f00000000000000000000000000000000000000000000000000815250602060405190810160405280600081525060006105dd565b50565b60608060606000600160008673ffffffffffffffffffffffffffffffffffffffff1673ffffffffffffffffffffffffffffffffffffffff168152602001908152602001600020600001600160008773ffffffffffffffffffffffffffffffffffffffff1673ffffffffffffffffffffffffffffffffffffffff168152602001908152602001600020600101600160008873ffffffffffffffffffffffffffffffffffffffff1673ffffffffffffffffffffffffffffffffffffffff168152602001908152602001600020600201600160008973ffffffffffffffffffffffffffffffffffffffff1673ffffffffffffffffffffffffffffffffffffffff16815260200190815260200160002060030160009054906101000a900460ff16838054600181600116156101000203166002900480601f016020809104026020016040519081016040528092919081815260200182805460018160011615610100020316600290048015610bff5780601f10610bd457610100808354040283529160200191610bff565b820191906000526020600020905b815481529060010190602001808311610be257829003601f168201915b50505050509350828054600181600116156101000203166002900480601f016020809104026020016040519081016040528092919081815260200182805460018160011615610100020316600290048015610c9b5780601f10610c7057610100808354040283529160200191610c9b565b820191906000526020600020905b815481529060010190602001808311610c7e57829003601f168201915b50505050509250818054600181600116156101000203166002900480601f016020809104026020016040519081016040528092919081815260200182805460018160011615610100020316600290048015610d375780601f10610d0c57610100808354040283529160200191610d37565b820191906000526020600020905b815481529060010190602001808311610d1a57829003601f168201915b5050505050915093509350935093509193509193565b828054600181600116156101000203166002900490600052602060002090601f016020900481019282601f10610d8e57805160ff1916838001178555610dbc565b82800160010185558215610dbc579182015b82811115610dbb578251825591602001919060010190610da0565b5b509050610dc99190610ddd565b5090565b6040516113d280610e0383390190565b610dff91905b80821115610dfb576000816000905550600101610de3565b5090565b9056006080604052604051620013d2380380620013d28339810180604052810190808051820192919060200180518201929190602001805190602001909291908051906020019092919050505033600260086101000a81548173ffffffffffffffffffffffffffffffffffffffff021916908373ffffffffffffffffffffffffffffffffffffffff1602179055508360009080519060200190620000a292919062000108565b508260019080519060200190620000bb92919062000108565b5081600260006101000a81548163ffffffff021916908363ffffffff16021790555080600260046101000a81548163ffffffff021916908363ffffffff16021790555050505050620001b7565b828054600181600116156101000203166002900490600052602060002090601f016020900481019282601f106200014b57805160ff19168380011785556200017c565b828001600101855582156200017c579182015b828111156200017b5782518255916020019190600101906200015e565b5b5090506200018b91906200018f565b5090565b620001b491905b80821115620001b057600081600090555060010162000196565b5090565b90565b61120b80620001c76000396000f30060806040526004361061006d576000357c0100000000000000000000000000000000000000000000000000000000900463ffffffff1680630ce7d168146100725780631b57f55a1461007c5780632963f67f146100d85780635aa68ac0146101455780637143059f146101b1575b600080fd5b61007a610274565b005b6100d6600480360381019080803590602001908201803590602001908080601f0160208091040260200160405190810160405280939291908181526020018383808284378201915050505050509192919290505050610a35565b005b3480156100e457600080fd5b5061010360048036038101908080359060200190929190505050610f40565b604051808273ffffffffffffffffffffffffffffffffffffffff1673ffffffffffffffffffffffffffffffffffffffff16815260200191505060405180910390f35b34801561015157600080fd5b5061015a610f7e565b6040518080602001828103825283818151815260200191508051906020019060200280838360005b8381101561019d578082015181840152602081019050610182565b505050509050019250505060405180910390f35b3480156101bd57600080fd5b506101f2600480360381019080803573ffffffffffffffffffffffffffffffffffffffff16906020019092919050505061100c565b6040518080602001838152602001828103825284818151815260200191508051906020019080838360005b8381101561023857808201518184015260208101905061021d565b50505050905090810190601f1680156102655780820380516001836020036101000a031916815260200191505b50935050505060405180910390f35b6060600060608060606000806102893361100c565b96509650600560009054906101000a900473ffffffffffffffffffffffffffffffffffffffff1673ffffffffffffffffffffffffffffffffffffffff1663f7566b49306040518263ffffffff167c0100000000000000000000000000000000000000000000000000000000028152600401808273ffffffffffffffffffffffffffffffffffffffff1673ffffffffffffffffffffffffffffffffffffffff168152602001915050600060405180830381600087803b15801561034a57600080fd5b505af115801561035e573d6000803e3d6000fd5b505050506040513d6000823e3d601f19601f82011682018060405250608081101561038857600080fd5b8101908080516401000000008111156103a057600080fd5b828101905060208101848111156103b657600080fd5b81518560018202830111640100000000821117156103d357600080fd5b505092919060200180516401000000008111156103ef57600080fd5b8281019050602081018481111561040557600080fd5b815185600182028301116401000000008211171561042257600080fd5b5050929190602001805164010000000081111561043e57600080fd5b8281019050602081018481111561045457600080fd5b815185600182028301116401000000008211171561047157600080fd5b505092919060200180519060200190929190505050945094509450945081151561049a57600080fd5b826040516020018082805190602001908083835b6020831015156104d357805182526020820191506020810190506020830392506104ae565b6001836020036101000a0380198251168184511680821785525050505050509050019150506040516020818303038152906040526040518082805190602001908083835b60208310151561053c5780518252602082019150602081019050602083039250610517565b6001836020036101000a038019825116818451168082178552505050505050905001915050604051809103902060001916876040516020018082805190602001908083835b6020831015156105a65780518252602082019150602081019050602083039250610581565b6001836020036101000a0380198251168184511680821785525050505050509050019150506040516020818303038152906040526040518082805190602001908083835b60208310151561060f57805182526020820191506020810190506020830392506105ea565b6001836020036101000a03801982511681845116808217855250505050505090500191505060405180910390206000191614151561064c57600080fd5b826040516020018082805190602001908083835b6020831015156106855780518252602082019150602081019050602083039250610660565b6001836020036101000a0380198251168184511680821785525050505050509050019150506040516020818303038152906040526040518082805190602001908083835b6020831015156106ee57805182526020820191506020810190506020830392506106c9565b6001836020036101000a038019825116818451168082178552505050505050905001915050604051809103902060001916856040516020018082805190602001908083835b6020831015156107585780518252602082019150602081019050602083039250610733565b6001836020036101000a0380198251168184511680821785525050505050509050019150506040516020818303038152906040526040518082805190602001908083835b6020831015156107c1578051825260208201915060208101905060208303925061079c565b6001836020036101000a038019825116818451168082178552505050505050905001915050604051809103902060001916141561081a57600260009054906101000a900463ffffffff1663ffffffff16860290506109e5565b826040516020018082805190602001908083835b602083101515610853578051825260208201915060208101905060208303925061082e565b6001836020036101000a0380198251168184511680821785525050505050509050019150506040516020818303038152906040526040518082805190602001908083835b6020831015156108bc5780518252602082019150602081019050602083039250610897565b6001836020036101000a038019825116818451168082178552505050505050905001915050604051809103902060001916846040516020018082805190602001908083835b6020831015156109265780518252602082019150602081019050602083039250610901565b6001836020036101000a0380198251168184511680821785525050505050509050019150506040516020818303038152906040526040518082805190602001908083835b60208310151561098f578051825260208201915060208101905060208303925061096a565b6001836020036101000a03801982511681845116808217855250505050505090500191505060405180910390206000191614156109e457600260049054906101000a900463ffffffff1663ffffffff16860290505b5b3373ffffffffffffffffffffffffffffffffffffffff166108fc829081150290604051600060405180830381858888f19350505050158015610a2b573d6000803e3d6000fd5b5050505050505050565b6000670de0b6b3a76400003410151515610a4e57600080fd5b816040516020018082805190602001908083835b602083101515610a875780518252602082019150602081019050602083039250610a62565b6001836020036101000a0380198251168184511680821785525050505050509050019150506040516020818303038152906040526040518082805190602001908083835b602083101515610af05780518252602082019150602081019050602083039250610acb565b6001836020036101000a03801982511681845116808217855250505050505090500191505060405180910390206000191660006040516020018082805460018160011615610100020316600290048015610b815780601f10610b5f576101008083540402835291820191610b81565b820191906000526020600020905b815481529060010190602001808311610b6d575b50509150506040516020818303038152906040526040518082805190602001908083835b602083101515610bca5780518252602082019150602081019050602083039250610ba5565b6001836020036101000a0380198251168184511680821785525050505050509050019150506040518091039020600019161480610db15750816040516020018082805190602001908083835b602083101515610c3b5780518252602082019150602081019050602083039250610c16565b6001836020036101000a0380198251168184511680821785525050505050509050019150506040516020818303038152906040526040518082805190602001908083835b602083101515610ca45780518252602082019150602081019050602083039250610c7f565b6001836020036101000a03801982511681845116808217855250505050505090500191505060405180910390206000191660016040516020018082805460018160011615610100020316600290048015610d355780601f10610d13576101008083540402835291820191610d35565b820191906000526020600020905b815481529060010190602001808311610d21575b50509150506040516020818303038152906040526040518082805190602001908083835b602083101515610d7e5780518252602082019150602081019050602083039250610d59565b6001836020036101000a038019825116818451168082178552505050505050905001915050604051809103902060001916145b1515610dbc57600080fd5b600360003373ffffffffffffffffffffffffffffffffffffffff1673ffffffffffffffffffffffffffffffffffffffff168152602001908152602001600020905081816000019080519060200190610e1592919061113a565b50348160010181905550600160043390806001815401808255809150509060018203906000526020600020016000909192909190916101000a81548173ffffffffffffffffffffffffffffffffffffffff021916908373ffffffffffffffffffffffffffffffffffffffff16021790555050508060010154816000016040518082805460018160011615610100020316600290048015610eec5780601f10610eca576101008083540402835291820191610eec565b820191906000526020600020905b815481529060010190602001808311610ed8575b505091505060405180910390203073ffffffffffffffffffffffffffffffffffffffff167f238c27fdbc1ccb0fcb932fb9ee2ee8845872c2c5c10397cf0d39f359ce13958d60405160405180910390a45050565b600481815481101515610f4f57fe5b906000526020600020016000915054906101000a900473ffffffffffffffffffffffffffffffffffffffff1681565b6060600480548060200260200160405190810160405280929190818152602001828054801561100257602002820191906000526020600020905b8160009054906101000a900473ffffffffffffffffffffffffffffffffffffffff1673ffffffffffffffffffffffffffffffffffffffff1681526020019060010190808311610fb8575b5050505050905090565b60606000600360008473ffffffffffffffffffffffffffffffffffffffff1673ffffffffffffffffffffffffffffffffffffffff168152602001908152602001600020600001600360008573ffffffffffffffffffffffffffffffffffffffff1673ffffffffffffffffffffffffffffffffffffffff16815260200190815260200160002060010154818054600181600116156101000203166002900480601f01602080910402602001604051908101604052809291908181526020018280546001816001161561010002031660029004801561112a5780601f106110ff5761010080835404028352916020019161112a565b820191906000526020600020905b81548152906001019060200180831161110d57829003601f168201915b5050505050915091509150915091565b828054600181600116156101000203166002900490600052602060002090601f016020900481019282601f1061117b57805160ff19168380011785556111a9565b828001600101855582156111a9579182015b828111156111a857825182559160200191906001019061118d565b5b5090506111b691906111ba565b5090565b6111dc91905b808211156111d85760008160009055506001016111c0565b5090565b905600a165627a7a72305820909f0d84710f79142bb680b68e83e5e459a75c8a2099bd549f923a9e0845419a0029a165627a7a723058200253ae405c124afbb00484f40bcce977875fbf8ac419868898a4e307b175e4990029",
  "source": "pragma solidity ^0.4.23;\r\n\r\nimport \"./BitbetBet.sol\";\r\n\r\ncontract BitbetOracle {\r\n    address private administrator;\r\n\r\n    constructor() public {\r\n        administrator = msg.sender;\r\n    }\r\n\r\n    function createBet() public {\r\n        BitbetBet bitbetContract = new BitbetBet(\"teamOne\", \"teamTwo\", 10, 12);\r\n        // On ajoute le pari dans la table\r\n        setBetTable(address(bitbetContract), \"teamOne\", \"teamTwo\", \"\", false);\r\n    }\r\n\r\n    function setResult(BitbetBet _bitBetContract, string _winner, bool _finish) public {\r\n        require(msg.sender == administrator);\r\n\r\n        setBetTable(address(_bitBetContract), \"\", \"\", _winner, _finish);\r\n    }\r\n\r\n    mapping (address => Bet) bets;\r\n    address[] public betsList;\r\n\r\n    struct Bet {\r\n        string teamOne;\r\n        string teamTwo;\r\n        string winner;\r\n        bool finish;\r\n    }\r\n\r\n    function setBetTable(address _address, string _teamOne, string _teamTwo, string _winner, bool _finish) public {\r\n        var bet = bets[_address];\r\n\r\n        bytes memory tmpTeamOne = bytes(_teamOne); // Uses memory\r\n        bytes memory tmpTeamTwo = bytes(_teamTwo); // Uses memory\r\n        if (tmpTeamOne.length != 0 && tmpTeamTwo.length != 0) {\r\n            bet.teamOne = _teamOne;\r\n            bet.teamTwo = _teamTwo;\r\n        }\r\n\r\n        if (keccak256(_winner) == keccak256(_teamOne) || keccak256(_winner) == keccak256(_teamTwo)) {\r\n            bet.winner = _winner;\r\n        }\r\n        bet.finish = _finish;\r\n\r\n        betsList.push(_address) -1;\r\n    }\r\n\r\n    function getBetsList() view public returns (address[]) {\r\n        return betsList;\r\n    }\r\n\r\n    function getBet(address _address) view public returns (string, string, string, bool) {\r\n        return (bets[_address].teamOne, bets[_address].teamTwo, bets[_address].winner, bets[_address].finish);\r\n    }\r\n}\r\n",
  "sourcePath": "C:\\Users\\Pol\\Documents\\Cours 4ème année\\Blockchain\\Projet\\BitBet\\BACK\\contracts\\BitbetOracle.sol",
  "compiler": {
    "name": "solc",
    "version": "0.4.23+commit.124ca40d.Emscripten.clang"
  },
  "schemaVersion": "2.0.0",
  "updatedAt": "2018-06-08T13:21:00.399Z"
}