{
  "contractName": "BitbetBet",
  "abi": [
    {
      "constant": true,
      "inputs": [
        {
          "name": "",
          "type": "uint256"
        }
      ],
      "name": "participantAccts",
      "outputs": [
        {
          "name": "",
          "type": "address"
        }
      ],
      "payable": false,
      "stateMutability": "view",
      "type": "function"
    },
    {
      "inputs": [
        {
          "name": "_teamOne",
          "type": "string"
        },
        {
          "name": "_teamTwo",
          "type": "string"
        },
        {
          "name": "_teamOneRate",
          "type": "uint32"
        },
        {
          "name": "_teamTwoRate",
          "type": "uint32"
        }
      ],
      "payable": true,
      "stateMutability": "payable",
      "type": "constructor"
    },
    {
      "anonymous": false,
      "inputs": [
        {
          "indexed": true,
          "name": "_betContrat",
          "type": "address"
        },
        {
          "indexed": true,
          "name": "_team",
          "type": "string"
        },
        {
          "indexed": true,
          "name": "_amount",
          "type": "uint256"
        }
      ],
      "name": "BetSet",
      "type": "event"
    },
    {
      "constant": false,
      "inputs": [
        {
          "name": "_team",
          "type": "string"
        }
      ],
      "name": "setBet",
      "outputs": [],
      "payable": true,
      "stateMutability": "payable",
      "type": "function"
    },
    {
      "constant": true,
      "inputs": [],
      "name": "getParticipants",
      "outputs": [
        {
          "name": "",
          "type": "address[]"
        }
      ],
      "payable": false,
      "stateMutability": "view",
      "type": "function"
    },
    {
      "constant": true,
      "inputs": [
        {
          "name": "_address",
          "type": "address"
        }
      ],
      "name": "getParticipant",
      "outputs": [
        {
          "name": "",
          "type": "string"
        },
        {
          "name": "",
          "type": "uint256"
        }
      ],
      "payable": false,
      "stateMutability": "view",
      "type": "function"
    },
    {
      "constant": false,
      "inputs": [],
      "name": "retrieveGain",
      "outputs": [],
      "payable": true,
      "stateMutability": "payable",
      "type": "function"
    }
  ],
  "bytecode": "0x6080604052604051620013d2380380620013d28339810180604052810190808051820192919060200180518201929190602001805190602001909291908051906020019092919050505033600260086101000a81548173ffffffffffffffffffffffffffffffffffffffff021916908373ffffffffffffffffffffffffffffffffffffffff1602179055508360009080519060200190620000a292919062000108565b508260019080519060200190620000bb92919062000108565b5081600260006101000a81548163ffffffff021916908363ffffffff16021790555080600260046101000a81548163ffffffff021916908363ffffffff16021790555050505050620001b7565b828054600181600116156101000203166002900490600052602060002090601f016020900481019282601f106200014b57805160ff19168380011785556200017c565b828001600101855582156200017c579182015b828111156200017b5782518255916020019190600101906200015e565b5b5090506200018b91906200018f565b5090565b620001b491905b80821115620001b057600081600090555060010162000196565b5090565b90565b61120b80620001c76000396000f30060806040526004361061006d576000357c0100000000000000000000000000000000000000000000000000000000900463ffffffff1680630ce7d168146100725780631b57f55a1461007c5780632963f67f146100d85780635aa68ac0146101455780637143059f146101b1575b600080fd5b61007a610274565b005b6100d6600480360381019080803590602001908201803590602001908080601f0160208091040260200160405190810160405280939291908181526020018383808284378201915050505050509192919290505050610a35565b005b3480156100e457600080fd5b5061010360048036038101908080359060200190929190505050610f40565b604051808273ffffffffffffffffffffffffffffffffffffffff1673ffffffffffffffffffffffffffffffffffffffff16815260200191505060405180910390f35b34801561015157600080fd5b5061015a610f7e565b6040518080602001828103825283818151815260200191508051906020019060200280838360005b8381101561019d578082015181840152602081019050610182565b505050509050019250505060405180910390f35b3480156101bd57600080fd5b506101f2600480360381019080803573ffffffffffffffffffffffffffffffffffffffff16906020019092919050505061100c565b6040518080602001838152602001828103825284818151815260200191508051906020019080838360005b8381101561023857808201518184015260208101905061021d565b50505050905090810190601f1680156102655780820380516001836020036101000a031916815260200191505b50935050505060405180910390f35b6060600060608060606000806102893361100c565b96509650600560009054906101000a900473ffffffffffffffffffffffffffffffffffffffff1673ffffffffffffffffffffffffffffffffffffffff1663f7566b49306040518263ffffffff167c0100000000000000000000000000000000000000000000000000000000028152600401808273ffffffffffffffffffffffffffffffffffffffff1673ffffffffffffffffffffffffffffffffffffffff168152602001915050600060405180830381600087803b15801561034a57600080fd5b505af115801561035e573d6000803e3d6000fd5b505050506040513d6000823e3d601f19601f82011682018060405250608081101561038857600080fd5b8101908080516401000000008111156103a057600080fd5b828101905060208101848111156103b657600080fd5b81518560018202830111640100000000821117156103d357600080fd5b505092919060200180516401000000008111156103ef57600080fd5b8281019050602081018481111561040557600080fd5b815185600182028301116401000000008211171561042257600080fd5b5050929190602001805164010000000081111561043e57600080fd5b8281019050602081018481111561045457600080fd5b815185600182028301116401000000008211171561047157600080fd5b505092919060200180519060200190929190505050945094509450945081151561049a57600080fd5b826040516020018082805190602001908083835b6020831015156104d357805182526020820191506020810190506020830392506104ae565b6001836020036101000a0380198251168184511680821785525050505050509050019150506040516020818303038152906040526040518082805190602001908083835b60208310151561053c5780518252602082019150602081019050602083039250610517565b6001836020036101000a038019825116818451168082178552505050505050905001915050604051809103902060001916876040516020018082805190602001908083835b6020831015156105a65780518252602082019150602081019050602083039250610581565b6001836020036101000a0380198251168184511680821785525050505050509050019150506040516020818303038152906040526040518082805190602001908083835b60208310151561060f57805182526020820191506020810190506020830392506105ea565b6001836020036101000a03801982511681845116808217855250505050505090500191505060405180910390206000191614151561064c57600080fd5b826040516020018082805190602001908083835b6020831015156106855780518252602082019150602081019050602083039250610660565b6001836020036101000a0380198251168184511680821785525050505050509050019150506040516020818303038152906040526040518082805190602001908083835b6020831015156106ee57805182526020820191506020810190506020830392506106c9565b6001836020036101000a038019825116818451168082178552505050505050905001915050604051809103902060001916856040516020018082805190602001908083835b6020831015156107585780518252602082019150602081019050602083039250610733565b6001836020036101000a0380198251168184511680821785525050505050509050019150506040516020818303038152906040526040518082805190602001908083835b6020831015156107c1578051825260208201915060208101905060208303925061079c565b6001836020036101000a038019825116818451168082178552505050505050905001915050604051809103902060001916141561081a57600260009054906101000a900463ffffffff1663ffffffff16860290506109e5565b826040516020018082805190602001908083835b602083101515610853578051825260208201915060208101905060208303925061082e565b6001836020036101000a0380198251168184511680821785525050505050509050019150506040516020818303038152906040526040518082805190602001908083835b6020831015156108bc5780518252602082019150602081019050602083039250610897565b6001836020036101000a038019825116818451168082178552505050505050905001915050604051809103902060001916846040516020018082805190602001908083835b6020831015156109265780518252602082019150602081019050602083039250610901565b6001836020036101000a0380198251168184511680821785525050505050509050019150506040516020818303038152906040526040518082805190602001908083835b60208310151561098f578051825260208201915060208101905060208303925061096a565b6001836020036101000a03801982511681845116808217855250505050505090500191505060405180910390206000191614156109e457600260049054906101000a900463ffffffff1663ffffffff16860290505b5b3373ffffffffffffffffffffffffffffffffffffffff166108fc829081150290604051600060405180830381858888f19350505050158015610a2b573d6000803e3d6000fd5b5050505050505050565b6000670de0b6b3a76400003410151515610a4e57600080fd5b816040516020018082805190602001908083835b602083101515610a875780518252602082019150602081019050602083039250610a62565b6001836020036101000a0380198251168184511680821785525050505050509050019150506040516020818303038152906040526040518082805190602001908083835b602083101515610af05780518252602082019150602081019050602083039250610acb565b6001836020036101000a03801982511681845116808217855250505050505090500191505060405180910390206000191660006040516020018082805460018160011615610100020316600290048015610b815780601f10610b5f576101008083540402835291820191610b81565b820191906000526020600020905b815481529060010190602001808311610b6d575b50509150506040516020818303038152906040526040518082805190602001908083835b602083101515610bca5780518252602082019150602081019050602083039250610ba5565b6001836020036101000a0380198251168184511680821785525050505050509050019150506040518091039020600019161480610db15750816040516020018082805190602001908083835b602083101515610c3b5780518252602082019150602081019050602083039250610c16565b6001836020036101000a0380198251168184511680821785525050505050509050019150506040516020818303038152906040526040518082805190602001908083835b602083101515610ca45780518252602082019150602081019050602083039250610c7f565b6001836020036101000a03801982511681845116808217855250505050505090500191505060405180910390206000191660016040516020018082805460018160011615610100020316600290048015610d355780601f10610d13576101008083540402835291820191610d35565b820191906000526020600020905b815481529060010190602001808311610d21575b50509150506040516020818303038152906040526040518082805190602001908083835b602083101515610d7e5780518252602082019150602081019050602083039250610d59565b6001836020036101000a038019825116818451168082178552505050505050905001915050604051809103902060001916145b1515610dbc57600080fd5b600360003373ffffffffffffffffffffffffffffffffffffffff1673ffffffffffffffffffffffffffffffffffffffff168152602001908152602001600020905081816000019080519060200190610e1592919061113a565b50348160010181905550600160043390806001815401808255809150509060018203906000526020600020016000909192909190916101000a81548173ffffffffffffffffffffffffffffffffffffffff021916908373ffffffffffffffffffffffffffffffffffffffff16021790555050508060010154816000016040518082805460018160011615610100020316600290048015610eec5780601f10610eca576101008083540402835291820191610eec565b820191906000526020600020905b815481529060010190602001808311610ed8575b505091505060405180910390203073ffffffffffffffffffffffffffffffffffffffff167f238c27fdbc1ccb0fcb932fb9ee2ee8845872c2c5c10397cf0d39f359ce13958d60405160405180910390a45050565b600481815481101515610f4f57fe5b906000526020600020016000915054906101000a900473ffffffffffffffffffffffffffffffffffffffff1681565b6060600480548060200260200160405190810160405280929190818152602001828054801561100257602002820191906000526020600020905b8160009054906101000a900473ffffffffffffffffffffffffffffffffffffffff1673ffffffffffffffffffffffffffffffffffffffff1681526020019060010190808311610fb8575b5050505050905090565b60606000600360008473ffffffffffffffffffffffffffffffffffffffff1673ffffffffffffffffffffffffffffffffffffffff168152602001908152602001600020600001600360008573ffffffffffffffffffffffffffffffffffffffff1673ffffffffffffffffffffffffffffffffffffffff16815260200190815260200160002060010154818054600181600116156101000203166002900480601f01602080910402602001604051908101604052809291908181526020018280546001816001161561010002031660029004801561112a5780601f106110ff5761010080835404028352916020019161112a565b820191906000526020600020905b81548152906001019060200180831161110d57829003601f168201915b5050505050915091509150915091565b828054600181600116156101000203166002900490600052602060002090601f016020900481019282601f1061117b57805160ff19168380011785556111a9565b828001600101855582156111a9579182015b828111156111a857825182559160200191906001019061118d565b5b5090506111b691906111ba565b5090565b6111dc91905b808211156111d85760008160009055506001016111c0565b5090565b905600a165627a7a72305820909f0d84710f79142bb680b68e83e5e459a75c8a2099bd549f923a9e0845419a0029",
  "source": "pragma solidity ^0.4.23;\r\n\r\n\r\nimport './BitbetOracleInterface.sol';\r\n\r\ncontract BitbetBet {\r\n\r\n    string teamOne;\r\n    string teamTwo;\r\n    uint32 teamOneRate;\r\n    uint32 teamTwoRate;\r\n    address private administrator;\r\n    mapping (address => Bet) participants;\r\n    address[] public participantAccts;\r\n\r\n    BitBetOracleInterface bitBetOracle;\r\n\r\n    // An event to trigger with values to index, an address and a string.\r\n    event BetSet(address indexed _betContrat, string indexed _team, uint256 indexed _amount);\r\n\r\n    constructor(string _teamOne, string _teamTwo, uint32 _teamOneRate, uint32 _teamTwoRate) public payable {\r\n        administrator = msg.sender;\r\n        teamOne = _teamOne;\r\n        teamTwo = _teamTwo;\r\n\r\n        teamOneRate = _teamOneRate;\r\n        teamTwoRate = _teamTwoRate;\r\n    }\r\n\r\n    struct Bet {\r\n        string team;\r\n        uint256 amount;\r\n    }\r\n\r\n    function setBet(string _team) public payable {\r\n        require(msg.value >= 1 ether);\r\n        require(keccak256(abi.encodePacked(teamOne)) == keccak256(abi.encodePacked(_team)) || keccak256(abi.encodePacked(teamTwo)) == keccak256(abi.encodePacked(_team)));\r\n        var participant = participants[msg.sender];\r\n\r\n        participant.team = _team;\r\n        participant.amount = msg.value;\r\n\r\n        participantAccts.push(msg.sender) -1;\r\n        emit BetSet(address(this), participant.team, participant.amount);\r\n    }\r\n\r\n\r\n    function getParticipants() view public returns (address[]) {\r\n        return participantAccts;\r\n    }\r\n\r\n    function getParticipant(address _address) view public returns (string, uint256) {\r\n        return (participants[_address].team, participants[_address].amount);\r\n    }\r\n\r\n    /* Le client demande ses gains */\r\n    function retrieveGain() payable public {\r\n        var (team, amount) = getParticipant(msg.sender);\r\n        var (teamOne, teamTwo, winner, finish) = bitBetOracle.getBet(address(this));\r\n\r\n        // le match doit être terminé\r\n        require(finish);\r\n        // l'utilisateur doit avoir voté pour l'équipe gagnante\r\n        require(keccak256(abi.encodePacked(team)) == keccak256(abi.encodePacked(winner)));\r\n\r\n        uint256 amtToGive;\r\n        if (keccak256(abi.encodePacked(teamOne)) == keccak256(abi.encodePacked(winner))) {\r\n            amtToGive = amount * teamOneRate;\r\n        }\r\n        else if (keccak256(abi.encodePacked(teamTwo)) == keccak256(abi.encodePacked(winner))) {\r\n            amtToGive = amount * teamTwoRate;\r\n        }\r\n\r\n        msg.sender.transfer(amtToGive);\r\n    }\r\n\r\n}\r\n",
  "sourcePath": "C:\\Users\\Pol\\Documents\\Cours 4ème année\\Blockchain\\Projet\\BitBet\\BACK\\contracts\\BitbetBet.sol",
  "compiler": {
    "name": "solc",
    "version": "0.4.23+commit.124ca40d.Emscripten.clang"
  },
  "schemaVersion": "2.0.0",
  "updatedAt": "2018-06-08T13:20:59.470Z"
}